:100000000C945D000C9485000C9485000C94850084
:100010000C9485000C9485000C9485000C9485004C
:100020000C9485000C9485000C9485000C9485003C
:100030000C9485000C9485000C9485000C9485002C
:100040000C94CB050C9485000C9485000C948500D1
:100050000C9485000C9485000C9485000C9485000C
:100060000C9415060C948500000000002400270065
:100070002A0000000000250028002B0004040404CE
:100080000404040402020202020203030303030342
:10009000010204081020408001020408102001021F
:1000A00004081020000000080002010000030407FB
:1000B0000000000000000000650711241FBECFEF04
:1000C000D8E0DEBFCDBF11E0A0E0B1E0E2E4F5E1B1
:1000D00002C005900D92A238B107D9F722E0A2E83C
:1000E000B1E001C01D92AA36B207E1F710E0CDE5FC
:1000F000D0E004C02197FE010E94990ACC35D107B7
:10010000C9F70E9495070C949F0A0C94000008956B
:10011000089590E0FC01EC55FF4F2491FC01E0575D
:10012000FF4F3491FC01E458FF4FE491EE23C9F0F6
:10013000222339F0233001F1A8F4213019F12230C3
:1001400029F1F0E0EE0FFF1FEE58FF4FA591B4919B
:100150008FB7F894EC91611126C030953E233C9303
:100160008FBF08952730A9F02830C9F0243049F70F
:10017000809180008F7D03C0809180008F77809375
:100180008000DFCF84B58F7784BDDBCF84B58F7DD2
:10019000FBCF8091B0008F778093B000D2CF809159
:1001A000B0008F7DF9CF3E2BDACF3FB7F894809126
:1001B000EB019091EC01A091ED01B091EE0126B51B
:1001C000A89B05C02F3F19F00196A11DB11D3FBF8F
:1001D000BA2FA92F982F8827BC01CD01620F711D5E
:1001E000811D911D42E0660F771F881F991F4A9558
:1001F000D1F708958F929F92AF92BF92CF92DF92E4
:10020000EF92FF924B015C010E94D5006B017C01D3
:100210000E94D5006C197D098E099F09683E7340C4
:1002200081059105A8F321E0821A9108A108B1087F
:1002300088EEC80E83E0D81EE11CF11C81149104E5
:10024000A104B10429F7FF90EF90DF90CF90BF9009
:10025000AF909F908F9008952091C301260F332770
:10026000331F21323105ECF420911B02FC0190E098
:1002700080E0243069F082E00895A091C3012191CB
:10028000AC014D555E4FA40FB52FB11D2C930196B7
:10029000861798F38091C301680F6093C30180E0D3
:1002A000089581E0089510921B0281E080931A0264
:1002B0001092F50161E082E10E94890061E083E132
:1002C0000E948900E9EBF0E080818E7F808380814D
:1002D0008D7F808388E48093B80085E48093BC00A0
:1002E0000895CF93DF9391E09093A2018823B9F012
:1002F000C091B800D091BA008091BC008A7B8093F5
:10030000BC0060E082E10E94890060E083E10E941D
:1003100089000E945301D093BA00C093B800DF91C6
:10032000CF9108958F929F92AF92BF92CF92DF921A
:10033000EF92FF920F931F93CF93DF93D0914402DC
:10034000D13208F0D7C0182FC09143020E94D500C7
:100350006B017C0180911B0281116BC082E0809354
:100360001B0210931A028FEF809319021092180249
:10037000D0931702A3E2B2E0E7EFF1E080E0D813F8
:1003800091C01092F6018091F601CC0FC82BC0935A
:10039000F6018091F501813009F088C01092F501D5
:1003A0000E94D5006B017C018091F6018093BB0017
:1003B00080911D0290911E02A0911F02B091200217
:1003C000892B8A2B8B2BA1F00E94D50000911D0256
:1003D00010911E0220911F02309120026C197D099C
:1003E0008E099F09061717072807390708F442C026
:1003F0008091BC0083FDD8CF85EC8093BC000E9427
:10040000D5006B017C0180911B02823009F450C041
:10041000809119028F3F09F46FC0809119028032D8
:1004200009F46CC080911902803309F469C084E03A
:1004300026C080911D0290911E02A0911F02B091D2
:100440002002892B8A2B8B2B09F484CF0E94D500A4
:1004500080901D0290901E02A0901F02B09020027A
:100460006C197D098E099F0986169706A806B9069C
:1004700008F070CF80911C020E94710185E01092FB
:1004800022021092440210922102DF91CF911F911B
:100490000F91FF90EF90DF90CF90BF90AF909F9023
:1004A0008F9008959D9191938F5F69CF85EEA5CF31
:1004B00080911D0290911E02A0911F02B091200216
:1004C000892B8A2B8B2B09F49ECF0E94D50000919B
:1004D0001D0210911E0220911F02309120026C1902
:1004E0007D098E099F09061717072807390708F0A5
:1004F0008ACFC0CF81E0C3CF80E0C1CF82E0BFCF41
:1005000083E0BDCF0895E091F4018091F301E817F5
:1005100030F4F0E0EE57FE4F808190E008958FEFC9
:100520009FEF08959091F4018091F3012FEF3FEF39
:10053000981748F4E92FF0E0EE57FE4F208130E0A5
:100540009F5F9093F401C90108958091F301909108
:10055000F401891B990B0895CF92DF92EF92FF92DD
:100560000F931F93CF93DF937C01CB018A012091DE
:100570002102222389F0EB016B01C40ED51ECC159C
:10058000DD0569F06991D701ED91FC910190F08151
:10059000E02DC7010995F3CF642F0E942C01C801FB
:1005A000DF91CF911F910F91FF90EF90DF90CF904F
:1005B0000895CF93DF931F92CDB7DEB76983209163
:1005C00021022223F9F020914402203258F021E048
:1005D00030E0FC013383228390E080E00F90DF91D4
:1005E000CF91089580912202E82FF0E0ED5DFD4F5C
:1005F000998190838F5F809322028093440281E0EF
:1006000090E0ECCF61E0CE0101960E942C01F7CF83
:1006100090E080E008951F93CF93DF93EC01142FB7
:1006200089819A81288131E030932102209343020D
:100630001092220210924402DC01ED91FC91019093
:10064000F081E02D099589819A81DC01ED91FC9181
:100650000190F081E02D612F099581E0DF91CF912C
:100660001F910C949201DC01ED91FC910190F081BD
:10067000E02D09940F931F93CF93DF93EC018A0130
:1006800089819A81288131E03093210220934302AD
:10069000109222021092440224E0629FB0011124C1
:1006A0006A5F7F4FDC01ED91FC910190F081E02DBC
:1006B000099570E060E089819A810E94330370E0BF
:1006C00060E089819A810E943303B80189819A810F
:1006D0000E943303612F70E089819A810E94330365
:1006E00081E0DF91CF911F910F910C9492010F93B4
:1006F0001F93CF93DF93D0E0C0E0082F10E0B80144
:100700000C2E02C0759567950A94E2F7617080918E
:1007100052020E94890061E0809151020E9489008A
:1007200060E0809151020E9489002196C830D10575
:1007300031F7DF91CF911F910F910895FF920F93A1
:100740001F93CF93DF93F82EC1E5D2E060E08A815A
:100750000E94890061E08A810E94340760E08881FC
:100760000E94890061E088810E94340761E08981EC
:100770000E94340761E08A810E9489000BE010E04A
:10078000C8010197F1F78F2D0E94770380E00E9446
:10079000770360E08A810E948900C8010197F1F720
:1007A000DF91CF911F910F91FF9008954F925F922B
:1007B0006F927F928F929F92AF92BF92CF92DF9271
:1007C000EF92FF920F931F93CF93DF93EC016A0197
:1007D0007B0120E030E040E85FE3CB01B6010E94FE
:1007E000CF0887FDD6C020E030EC4AE555E4C701CC
:1007F000B6010E94270A18163CF4C12C30ECD32E07
:100800003AE5E32E35E4F32E6B817C818D819E8168
:100810000E9475094B015C0120E030E040E855E49E
:10082000C701B6010E942C0A9B01AC01C501B401AD
:100830000E94D40820E030E040E05FE30E946308BB
:1008400020E030E040E85FE30E9462086B017C0139
:1008500020E030E040E450E40E94CF0887FDA0C0D3
:1008600020E030E04FE753E4C701B6010E94270AB9
:10087000181634F4C12CD12C9FE7E92E93E4F92EFD
:10088000C701B6010E944609F62E89819A81288106
:1008900031E0309321022093430210922202109201
:1008A0004402DC01ED91FC910190F081E02D60E0CB
:1008B000099581E00E94920118810E94D5004B01A8
:1008C0005C0180911B02811171C081E080931B0249
:1008D00080931A029FEF90931902109218021092BF
:1008E00017028093F6018091F601110F182B1093D7
:1008F000F6018091F501813009F0B9C01092F5013F
:100900000E94D5004B015C018091F6018093BB00F1
:1009100080911D0290911E02A0911F02B0912002B1
:10092000892B8A2B8B2BA1F00E94D50000911D02F0
:1009300010911E0220911F0230912002681979093E
:100940008A099B09061717072807390708F44FC0BB
:100950008091BC0083FDD8CF85EC8093BC000E94C1
:10096000D5004B015C0180911B02813009F481C0EC
:100970008091180281119FC080911802E7EFF1E089
:10098000A2E8B1E090E09817B9F121912D939F5F13
:10099000FACFC12CD12C20E8E22E2FE3F22E34CF57
:1009A000C12CD12C80E4E82EFE2C6ACF80911D0250
:1009B00090911E02A0911F02B0912002892B8A2BD8
:1009C0008B2B09F47ECF0E94D50040901D025090E1
:1009D0001E0260901F0270902002681979098A092E
:1009E0009B09461657066806790608F06ACF80917B
:1009F0001C020E94710180E01092F4018093F301C7
:100A000089819A81DC01ED91FC910284F385E02DCE
:100A10000995182F482F4F76406160E0CE010E9463
:100A20000B034F2D6EEFCE010E940B03412F60E0B0
:100A3000CE010E940B0365E070E080E090E00E9430
:100A4000FA00412F406A60E0CE01DF91CF911F9103
:100A50000F91FF90EF90DF90CF90BF90AF909F905D
:100A60008F907F906F905F904F900C940B0385EE6A
:100A700074CF80911D0290911E02A0911F02B0912F
:100A80002002892B8A2B8B2B09F46DCF0E94D50075
:100A900000911D0210911E0220911F023091200230
:100AA000681979098A099B09061717072807390762
:100AB00008F059CF9CCF81E061CFCF93DF93EC0159
:100AC0001092F4011092F30110922202109244024B
:100AD0000E94530187E890E09093F2018093F10126
:100AE00088E890E09093F0018093EF0140E860E0A7
:100AF000CE010E940B036AE070E080E090E00E946B
:100B0000FA0040E050E06AE774E4CE010E94D603A8
:100B100080E498E7ADE7B1E08B839C83AD83BE832F
:100B2000DF91CF91089585ED8093BC0080911D02E7
:100B300090911E02A0911F02B09120020796A11D64
:100B4000B11D23E0B695A795979587952A95D1F77E
:100B50002091BC0024FD03C010921B020895409117
:100B60001D0250911E0260911F0270912002452BC0
:100B7000462B472B69F30097A105B10541F02AE206
:100B80002A95F1F700C00197A109B109E1CF809141
:100B90001C020C9471011F920F920FB60F92112438
:100BA0002F933F938F939F93AF93BF938091E701D0
:100BB0009091E801A091E901B091EA013091E6013C
:100BC00023E0230F2D3758F50196A11DB11D209369
:100BD000E6018093E7019093E801A093E901B093C7
:100BE000EA018091EB019091EC01A091ED01B091AF
:100BF000EE010196A11DB11D8093EB019093EC01D4
:100C0000A093ED01B093EE01BF91AF919F918F91B1
:100C10003F912F910F900FBE0F901F90189526E8CF
:100C2000230F0296A11DB11DD2CF1F920F920FB6B6
:100C30000F9211242F933F934F935F936F937F9362
:100C40008F939F93AF93BF93EF93FF938091B900DE
:100C5000887F803609F44AC0F0F5883209F4A7C0CD
:100C600018F5803109F49BC0B8F4882309F4F9C061
:100C7000883009F494C0FF91EF91BF91AF919F919B
:100C80008F917F916F915F914F913F912F910F9035
:100C90000FBE0F901F901895883109F488C08032DC
:100CA00051F78093190214C0803409F49DC040F4B8
:100CB0008033B9F38833F9F68093190285ECB0C01C
:100CC000803509F485C0883509F496C0883499F6D2
:100CD0000E949305D0CF883909F48CC038F5883745
:100CE00029F050F4883611F0803729F683E080939C
:100CF0001B021092E50157C0883809F47BC0803987
:100D000019F0803809F0B7CF8091E501803208F002
:100D100071C0E091E50181E08E0F8093E501809143
:100D2000BB00F0E0EB53FE4F80833DC0803B39F0C9
:100D3000E0F4803A09F479C0883A09F09CCF84E065
:100D400080931B021092C4011092C301E091F10143
:100D5000F091F20109958091C30181110FC081E0EA
:100D60008093C3011092A30109C0803C09F4A6CF6F
:100D7000883C09F4A3CF883B09F07DCFE091C40102
:100D800081E08E0F8093C401F0E0ED55FE4F80812D
:100D90008093BB009091C4018091C30129C08091D0
:100DA000F6018093BB0085EC8093BC0064CF9091EA
:100DB000180280911702981758F5E091180281E007
:100DC0008E0F80931802F0E0E950FE4F8081E9CF4A
:100DD000E091180281E08E0F809318028091BB0091
:100DE000F0E0E950FE4F8083909118028091170245
:100DF0009817C8F285E8D8CFE091180281E08E0FED
:100E0000809318028091BB00F0E0E950FE4F808390
:100E100080911A0281115CCF81E08093F50184EA10
:100E20008093BC0010921B0226CF85EC8093BC00FF
:100E300010921B028091E501803230F4E091E501CF
:100E4000F0E0EB53FE4F10826091E50170E0E0911D
:100E5000EF01F091F00185EC91E009951092E50128
:100E60000ACF1092190234CFCF93DF9390E0FC01A8
:100E7000E057FF4F249184589F4FFC0184918823B1
:100E8000D1F090E0880F991FFC01E859FF4FA59120
:100E9000B491FC01EE58FF4FC591D49161110EC081
:100EA0009FB7F8948C91E22FE0958E238C93288144
:100EB000E223E8839FBFDF91CF9108958FB7F89425
:100EC000EC91E22BEC938FBFF6CFE5E4F2E01382D6
:100ED000128288EE93E0A0E0B0E084839583A6833D
:100EE000B78384E791E091838083A3E6B2E080E456
:100EF0008C931296FC93EE931197ACE5B2E081E4EB
:100F00008C931296FC93EE931197E1E5F2E086E064
:100F1000808387E0818388E082838EE890E00E946E
:100F20009E0380E990E00C949E03789484B58260DF
:100F300084BD84B5816084BD85B5826085BD85B57D
:100F4000816085BD80916E00816080936E001092FB
:100F50008100809181008260809381008091810076
:100F60008160809381008091800081608093800007
:100F70008091B10084608093B1008091B000816065
:100F80008093B00080917A00846080937A00809191
:100F90007A00826080937A0080917A0081608093E9
:100FA0007A0080917A00806880937A001092C10064
:100FB00083E692E00E945D058CE592E00E945D056B
:100FC00080EC9CEFABE9B1E08093660290936702FE
:100FD000A0936802B093690280935F0290936002CD
:100FE000A0936102B093620240E050E068E472E4D2
:100FF00083E692E00E94D60340E050E068E472E4A9
:101000008CE592E00E94D60394E5E92E91E0F92E5A
:1010100008E311E0C0E0F701419151917F016C2F8D
:1010200083E692E00E943A036AE070E080E090E09C
:101030000E94FA00F801419151918F016C2F8CE5CB
:1010400092E00E943A036AE070E080E090E00E9443
:10105000FA00CF5FCE30F9F660ED77E080E090E007
:101060000E94FA008CE1E82E81E0F82E00E011E009
:10107000C0E0F701419151917F016C2F83E692E02E
:101080000E943A036AE070E080E090E00E94FA007B
:10109000F801419151918F016C2F8CE592E00E94F3
:1010A0003A036AE070E080E090E00E94FA00CF5FCF
:1010B000CE30F9F600E010E001151105E9F30E94C9
:1010C0000000FACF5058BB27AA270E947A080C9438
:1010D000ED090E94DF0938F00E94E60920F039F49A
:1010E0009F3F19F426F40C94DC090EF4E095E7FB1D
:1010F0000C94D609E92F0E94FE0958F3BA1762072B
:1011000073078407950720F079F4A6F50C94200A5C
:101110000EF4E0950B2EBA2FA02D0B01B901900112
:101120000C01CA01A0011124FF27591B99F0593F56
:1011300050F4503E68F11A16F040A22F232F342F9E
:101140004427585FF3CF469537952795A795F040EC
:101150005395C9F77EF41F16BA0B620B730B840B01
:10116000BAF09150A1F0FF0FBB1F661F771F881FB9
:10117000C2F70EC0BA0F621F731F841F48F4879511
:1011800077956795B795F7959E3F08F0B0CF939503
:10119000880F08F09927EE0F9795879508950E947C
:1011A000B20908F481E008950E94E8080C94ED0962
:1011B0000E94E60958F00E94DF0940F029F45F3FE1
:1011C00029F00C94D60951110C94210A0C94DC09D5
:1011D0000E94FE0968F39923B1F3552391F3951BFF
:1011E000550BBB27AA2762177307840738F09F5F48
:1011F0005F4F220F331F441FAA1FA9F335D00E2EB5
:101200003AF0E0E832D091505040E695001CCAF721
:101210002BD0FE2F29D0660F771F881FBB1F2617E4
:1012200037074807AB07B0E809F0BB0B802DBF01BB
:10123000FF2793585F4F3AF09E3F510578F00C948A
:10124000D6090C94210A5F3FE4F3983ED4F38695C7
:1012500077956795B795F7959F5FC9F7880F911DAB
:101260009695879597F90895E1E0660F771F881F97
:10127000BB1F621773078407BA0720F0621B730B4A
:10128000840BBA0BEE1F88F7E09508950E94060ABA
:1012900088F09F5798F0B92F9927B751B0F0E1F037
:1012A000660F771F881F991F1AF0BA95C9F714C0E7
:1012B000B13091F00E94200AB1E008950C94200A08
:1012C000672F782F8827B85F39F0B93FCCF3869520
:1012D00077956795B395D9F73EF49095809570957D
:1012E00061957F4F8F4F9F4F0895E89409C097FBFA
:1012F0003EF490958095709561957F4F8F4F9F4FED
:101300009923A9F0F92F96E9BB279395F695879530
:1013100077956795B795F111F8CFFAF4BB0F11F4F3
:1013200060FF1BC06F5F7F4F8F4F9F4F16C088239A
:1013300011F096E911C0772321F09EE8872F762FD0
:1013400005C0662371F096E8862F70E060E02AF011
:101350009A95660F771F881FDAF7880F96958795FD
:1013600097F90895990F0008550FAA0BE0E8FEEFD2
:1013700016161706E807F907C0F012161306E40759
:10138000F50798F0621B730B840B950B39F40A2652
:1013900061F0232B242B252B21F408950A2609F430
:1013A000A140A6958FEF811D811D089597F99F6734
:1013B00080E870E060E008959FEF80EC08950024DD
:1013C0000A941616170618060906089500240A94AA
:1013D00012161306140605060895092E0394000C30
:1013E00011F4882352F0BB0F40F4BF2B11F460FFBF
:1013F00004C06F5F7F4F8F4F9F4F089557FD9058E8
:10140000440F551F59F05F3F71F04795880F97FBC8
:10141000991F61F09F3F79F0879508951216130682
:101420001406551FF2CF4695F1DF08C016161706B1
:101430001806991FF1CF86957105610508940895E6
:10144000E894BB2766277727CB0197F908950E9478
:10145000B20908F48FEF08950E943F0A0C94ED0939
:101460000E94DF0938F00E94E60920F0952311F070
:101470000C94D6090C94DC0911240C94210A0E94C6
:10148000FE0970F3959FC1F3950F50E0551F629FC1
:10149000F001729FBB27F00DB11D639FAA27F00DCD
:1014A000B11DAA1F649F6627B00DA11D661F829FF4
:1014B0002227B00DA11D621F739FB00DA11D621FD9
:1014C000839FA00D611D221F749F3327A00D611DF6
:1014D000231F849F600D211D822F762F6A2F1124D8
:1014E0009F5750409AF0F1F088234AF0EE0FFF1F0B
:1014F000BB1F661F771F881F91505040A9F79E3F62
:10150000510580F00C94D6090C94210A5F3FE4F356
:10151000983ED4F3869577956795B795F795E795B7
:101520009F5FC1F7FE2B880F911D9695879597F9C0
:101530000895EE0FFF1F0590F491E02D0994F894A3
:02154000FFCFDB
:101542000000000000000000000000000000000099
:10155200000000000000000000000000F401640030
:10156200F40190019600F401F401F4016400900189
:10157200F401640000000000FA0096000000000080
:101582000000000000000000000000000000000059
:10159200000000002C012C01FA002C0190012C010A
:1015A2000E014A01FA00820090015E010000000073
:1015B20000000000D902AC0208038202A5029202D6
:0215C2008302A2
:00000001FF
